:100000000C943E000C945B000C945B000C945B0021
:100010000C945B000C945B000C945B000C945B00F4
:100020000C945B000C945B000C945B000C945B00E4
:100030000C945B000C945B000C945B000C943A03F2
:100040000C945B000C945B000C945B000C945B00C4
:100050000C943B020C945B000C945B000C945B00D2
:100060000C945B000C945B000C945B000C945B00A4
:100070000C945B000C945B000C945B0011241FBE7D
:10008000CFEFD4E0DEBFCDBF11E0A0E0B1E0EAE009
:10009000F7E002C005900D92A230B107D9F721E038
:1000A000A2E0B1E001C01D92A830B207E1F70E94C2
:1000B00057030C9483030C94000091E09093D800B4
:1000C0001092E5009091D90091609093D900109220
:1000D000E20094E09093E30092E19093E400909129
:1000E000DB00906A9093DB001092DF009FE3909317
:1000F000DE0090E0292F2295207F2093ED001092C2
:10010000EF001092EE009F5F9630A1F7811104C0BE
:100110008091D800826005C0823029F48091D80097
:100120008A608093D80080E00895E091DC00F0E0E0
:10013000082E02C0F595E7950A94E2F7E0FD2EC07F
:100140008295807F8093ED001092EE00CB0153E00A
:10015000969587955A95E1F78093F3006295660F1F
:10016000607E6093F2001092F1001092F000109205
:10017000F7001092F6001092F5001092F400922F02
:10018000F9018E2F891B841720F481918093FA0046
:10019000F8CF1092EF0040644093EF0080E00895A4
:1001A0002091DC0030E002C0359527958A95E2F772
:1001B00020FD0DC08091EE0086FF05C08091EE000D
:1001C0008F7B8093EE008091EE00811102C080E071
:1001D000089583E00895E091DC00F0E0082E02C06D
:1001E000F595E7950A94E2F7E0FD2EC08295807FB1
:1001F0008093ED001092EE00CB0153E09695879529
:100200005A95E1F78093F3006295660F607E6093E4
:10021000F2001092F1001092F000C90163E096958F
:1002200087956A95E1F78093F7002295220F207E4B
:100230002093F6001092F50085E08093F400109270
:10024000EF0040684093EF0080E008958295807F42
:100250008093ED008091EE0085FF07C08091EE0055
:100260008F7D8093EE0080E001C081E09091EE00F0
:1002700097FF04C06091EF006F6082E0FA0170E0C8
:100280009F01241B350B2617370724F49091FA00A1
:100290009193F6CF1092EE000895469A00C000C0E8
:1002A00046980895CF93C82F662311F0449A01C051
:1002B00044984598559A3F9A509A519A5998589807
:1002C00047985D98C7FD599AC6FD589AC5FD479A4B
:1002D000C4FD5D9A0E944D015998589847985D98C1
:1002E000C3FD599AC2FD589AC1FD479AC0FD5D9A57
:1002F0000E944D015D9A479A589A599ACF91089554
:100300004498459A55983F9850985198469A00C0FD
:1003100000C04D9B02C080E101C080E0379980623F
:100320004899806449998068469800C000C0469A00
:1003300000C000C04D9981603799826048998460FF
:1003400049998860469808950E94800187FDFCCFF6
:1003500085E08A95F1F700000C948001CF93C82FB7
:100360000E94A40160E08C2FCF910C945201CF9396
:10037000C82F0E94A40161E08C2FCF910C945201F0
:10038000611102C0805801C080540C94AE010E94DB
:10039000A40190E0089581E00C94AE0182E00C94F9
:1003A000AE01CF93C82F0E94A401CA3049F4803413
:1003B00010F080E001C080E48058CF910C94AE0131
:1003C00061E08C2FCF910C945201CF93DF93EC011D
:1003D0008991882319F00E94D101FACFDF91CF9142
:1003E0000895CF93DF93FC018491EF012196882338
:1003F00021F00E94D101FE01F7CFDF91CF91089546
:10040000CF93C82F3C9A3D9A3E9A559A3F9A509A5C
:10041000519A8FE79EE30197F1F700C00000479AD9
:100420005D9A0E944D0187E893E10197F1F700C0C2
:1004300000000E944D0195E59A95F1F700000E9499
:100440004D0185E58A95F1F700005D980E944D0108
:1004500095E59A95F1F7000088E20E94AE0188E0E8
:100460000E94AE010E94CB0186E00E94AE018C2F5B
:10047000CF910C94AE011F920F920FB60F921124E0
:100480008F938091040180FF09C08091D2008093F6
:100490000301809104018E7F809304018F910F905E
:1004A0000FBE0F901F901895E8ECF0E080818F60F0
:1004B00080838CE090E09093CE008093CD00EAECB6
:1004C000F0E0808181608083109204010895909112
:1004D000C90094FDFCCF8093D2000895FC0170E028
:1004E0009F01281B390B2617370744F42091C900B8
:1004F00024FDFCCF21912093D200F2CF8091C9003E
:1005000084FDFCCF8AE08093D2008091C90084FDF5
:10051000FCCF8DE08093D20008958091040181602A
:10052000809304018091040180FDFCCF8091030140
:10053000089594B1936894B9539A9CB534E0639F3D
:10054000B0011124692B6CBD9CB59065892B8CBDC5
:100550005093070140930601209305014532510550
:1005600051F434B181E090E001C0880F2A95EAF798
:10057000832B84B926C04832510551F437B181E04C
:1005800090E001C0880F2A95EAF7832B87B919C03C
:100590004B32510551F43AB181E090E001C0880F2F
:1005A0002A95EAF7832B8AB90CC04E32510549F4DB
:1005B0003DB181E090E001C0880F2A95EAF7832BD6
:1005C0008DB9E0910601F0910701208181E090E072
:1005D0000090050102C0880F991F0A94E2F7822B50
:1005E00080830895E0910601F0910701208181E068
:1005F00090E00090050102C0880F991F0A94E2F76D
:1006000080958223808308958EBD0DB407FEFDCFB3
:100610008EB5FB0180830895EF92FF920F931F9395
:10062000CF93DF938C01EB017C01E40EF11C0E15DE
:100630001F0541F0BE01F80181918F010E94040362
:100640002196F5CFDF91CF911F910F91FF90EF9001
:100650000895E0910601F0910701208181E090E08A
:100660000090050102C0880F991F0A94E2F7822BBF
:10067000808308951F920F920FB60F9211248F93CB
:10068000809100018160809300018F910F900FBED7
:100690000F901F90189582E084BD85E085BDEEE641
:1006A000F0E08081826080838FEF87BD0895CF93D3
:1006B000DF931F92CDB7DEB7579A5F9A3F9A479A5A
:1006C000198278940E944B0327E048E250E060E0F2
:1006D00080E00E9499028091000180FFFCCF809110
:1006E00000018E7F809300010E94F20210E0BE01A3
:1006F0006F5F7F4F812F0E9404031F5F1530B9F792
:0A0700000E942903E8CFF894FFCF10
:02070A000100EC
:00000001FF
