:100000000C943E000C945B000C945B000C945B0021
:100010000C945B000C945B000C945B000C945B00F4
:100020000C945B000C945B000C945B000C945B00E4
:100030000C945B000C945B000C945B000C946900C6
:100040000C945B000C945B000C945B000C945B00C4
:100050000C945F020C945B000C945B000C94780091
:100060000C948B000C945B000C945B000C945B0074
:100070000C945B000C945B000C945B0011241FBE7D
:10008000CFEFD4E0DEBFCDBF11E0A0E0B1E0E0EC07
:10009000F7E002C005900D92AA30B107D9F721E030
:1000A000AAE0B1E001C01D92AF30B207E1F70E94B3
:1000B000AD030C94DE030C94000082E084BD85E067
:1000C00085BDEEE6F0E080818260808387E287BDB7
:1000D00008951F920F920FB60F9211248F9381E013
:1000E000809300018F910F900FBE0F901F90189575
:1000F0001F920F920FB60F9211248F9386B185FB3A
:10010000882780F98195809304018F910F900FBE0D
:100110000F901F9018951F920F920FB60F921124F7
:100120008F9389B185FB882780F98195809305019C
:100130008F910F900FBE0F901F901895EAE7F0E097
:10014000808185688083EBE7F0E080818072808326
:10015000ECE7F0E08081806480838081816080832F
:10016000089580E480937C0080917C008A60809375
:100170007C0080917A00806480937A0080917A007C
:1001800086FDFCCF80917800909179009C01369596
:1001900027953695279520930201809303010895B2
:1001A00094B1936894B9539A9CB534E0639FB001BD
:1001B0001124692B6CBD9CB59065892B8CBD509327
:1001C0000C0140930B0120930A014532510551F473
:1001D00034B181E090E001C0880F2A95EAF7832BC3
:1001E00084B926C04832510551F437B181E090E01E
:1001F00001C0880F2A95EAF7832B87B919C04B32C3
:10020000510551F43AB181E090E001C0880F2A9580
:10021000EAF7832B8AB90CC04E32510549F43DB13F
:1002200081E090E001C0880F2A95EAF7832B8DB911
:10023000E0910B01F0910C01208181E090E00090B1
:100240000A0102C0880F991F0A94E2F7822B80836B
:100250000895E0910B01F0910C01208181E090E084
:1002600000900A0102C0880F991F0A94E2F7809556
:100270008223808308958EBD0DB407FEFDCF8EB519
:10028000FB0180830895EF92FF920F931F93CF930A
:10029000DF938C01EB017C01E40EF11C0E151F05B0
:1002A00041F0BE01F80181918F010E943B0121962E
:1002B000F5CFDF91CF911F910F91FF90EF900895AF
:1002C000E0910B01F0910C01208181E090E0009021
:1002D0000A0102C0880F991F0A94E2F7822B8083DB
:1002E0000895469A00C000C046980895CF93C82F3D
:1002F000662311F0449A01C044984598559A3F9A54
:10030000509A519A5998589847985D98C7FD599AAC
:10031000C6FD589AC5FD479AC4FD5D9A0E947101B9
:100320005998589847985D98C3FD599AC2FD589AB4
:10033000C1FD479AC0FD5D9A0E9471015D9A479A7E
:10034000589A599ACF9108954498459A55983F984C
:1003500050985198469A00C000C04D9B02C080E161
:1003600001C080E03799806248998064499980682B
:10037000469800C000C0469A00C000C04D998160F8
:1003800037998260489984604999886046980895B1
:100390000E94A40187FDFCCF85E08A95F1F700005B
:1003A0000C94A401CF93C82F0E94C80160E08C2F49
:1003B000CF910C947601CF93C82F0E94C80161E0C1
:1003C0008C2FCF910C947601611102C0805801C02E
:1003D00080540C94D2010E94C80190E0089581E0FD
:1003E0000C94D20182E00C94D201CF93C82F0E94CA
:1003F000C801CA3049F4803410F080E001C080E4C4
:100400008058CF910C94D20161E08C2FCF910C9445
:100410007601CF93DF93EC018991882319F00E9434
:10042000F501FACFDF91CF910895CF93DF93FC01CF
:100430008491EF012196882321F00E94F501FE01AD
:10044000F7CFDF91CF910895CF93C82F3C9A3D9A73
:100450003E9A559A3F9A509A519A8FE79EE3019798
:10046000F1F700C00000479A5D9A0E94710187E889
:1004700093E10197F1F700C000000E94710195E53A
:100480009A95F1F700000E94710185E58A95F1F7D0
:1004900000005D980E94710195E59A95F1F70000C2
:1004A00088E20E94D20188E00E94D2010E94EF01FE
:1004B00086E00E94D2018C2FCF910C94D2011F9222
:1004C0000F920FB60F9211248F9380910E0180FF2F
:1004D00009C08091D20080930D0180910E018E7F22
:1004E00080930E018F910F900FBE0F901F90189563
:1004F000E8ECF0E080818F6080838CE090E0909366
:10050000CE008093CD00EAECF0E0808181608083B2
:1005100010920E0108959091C90094FDFCCF809334
:10052000D2000895FC0170E09F01281B390B2617AB
:10053000370744F42091C90024FDFCCF219120937A
:10054000D200F2CF8091C90084FDFCCF8AE0809375
:10055000D2008091C90084FDFCCF8DE08093D20051
:10056000089580910E01816080930E0180910E01AB
:1005700080FDFCCF80910D01089591E09093D8000B
:100580001092E5009091D90091609093D90010925B
:10059000E20094E09093E30092E19093E400909164
:1005A000DB00906A9093DB001092DF009FE3909352
:1005B000DE0090E0292F2295207F2093ED001092FD
:1005C000EF001092EE009F5F9630A1F7811104C0FA
:1005D0008091D800826005C0823029F48091D800D3
:1005E0008A608093D80080E00895E091DC00F0E01C
:1005F000082E02C0F595E7950A94E2F7E0FD2EC0BB
:100600008295807F8093ED001092EE00CB0153E045
:10061000969587955A95E1F78093F3006295660F5A
:10062000607E6093F2001092F1001092F000109240
:10063000F7001092F6001092F5001092F400922F3D
:10064000F9018E2F891B841720F481918093FA0081
:10065000F8CF1092EF0040644093EF0080E00895DF
:100660002091DC0030E002C0359527958A95E2F7AD
:1006700020FD0DC08091EE0086FF05C08091EE0048
:100680008F7B8093EE008091EE00811102C080E0AC
:10069000089583E00895E091DC00F0E0082E02C0A8
:1006A000F595E7950A94E2F7E0FD2EC08295807FEC
:1006B0008093ED001092EE00CB0153E09695879564
:1006C0005A95E1F78093F3006295660F607E609320
:1006D000F2001092F1001092F000C90163E09695CB
:1006E00087956A95E1F78093F7002295220F207E87
:1006F0002093F6001092F50085E08093F4001092AC
:10070000EF0040684093EF0080E008958295807F7D
:100710008093ED008091EE0085FF07C08091EE0090
:100720008F7D8093EE0080E001C081E09091EE002B
:1007300097FF04C06091EF006F6082E0FA0170E003
:100740009F01241B350B2617370724F49091FA00DC
:100750009193F6CF1092EE00089584B18C6184B924
:100760008AB1806C8AB978940E945D00809168009B
:1007700086608093680080916C00806280936C003A
:1007800080916B00806280936B000E949E0080E0ED
:100790000E94BD028091000180FFFCCF809100018A
:1007A0008E7F809300010E94B10021E031E047E09C
:1007B0006BE070E080E00E94F502ECCFF894FFCF90
:0A07C0000100000000FF000000002F
:00000001FF
