:100000000C943E000C9450000C9450000C94500042
:100010000C9450000C9450000C9450000C94500020
:100020000C9450000C9450000C9450000C94500010
:100030000C9450000C9450000C9450000C947F04CD
:100040000C9450000C9450000C942F030C9450000E
:100050000C9430020C9450000C9450000C945504F5
:100060000C9470040C9450000C9450000C945000AC
:100070000C9450000C9450000C94500011241FBE9E
:10008000CFEFD4E0DEBFCDBF21E0A0E0B1E001C002
:100090001D92AD31B207E1F70E9411050C94AE0537
:1000A0000C94000091E09093D8001092E50090919C
:1000B000D90091609093D9001092E20094E090935F
:1000C000E30092E19093E4009091DB00906A9093BA
:1000D000DB001092DF009FE39093DE0090E0292F79
:1000E0002295207F2093ED001092EF001092EE00F9
:1000F0009F5F9630A1F7811104C08091D800826083
:1001000005C0823029F48091D8008A608093D8009D
:1001100080E00895E091DC00F0E0082E02C0F59543
:10012000E7950A94E2F7E0FD2EC08295807F8093E8
:10013000ED001092EE00CB0153E0969587955A950D
:10014000E1F78093F3006295660F607E6093F200A2
:100150001092F1001092F0001092F7001092F60049
:100160001092F5001092F400922FF9018E2F891B46
:10017000841720F481918093FA00F8CF1092EF0059
:1001800040644093EF0080E008952091DC0030E06F
:1001900002C0359527958A95E2F720FD0DC0809124
:1001A000EE0086FF05C08091EE008F7B8093EE000D
:1001B0008091EE00811102C080E0089583E00895EF
:1001C000E091DC00F0E0082E02C0F595E7950A9476
:1001D000E2F7E0FD2EC08295807F8093ED001092C3
:1001E000EE00CB0153E0969587955A95E1F7809301
:1001F000F3006295660F607E6093F2001092F1004A
:100200001092F000C90163E0969587956A95E1F731
:100210008093F7002295220F207E2093F600109203
:10022000F50085E08093F4001092EF004068409361
:10023000EF0080E008958295807F8093ED008091AB
:10024000EE0085FF07C08091EE008F7D8093EE0069
:1002500080E001C081E09091EE0097FF04C06091C2
:10026000EF006F6082E0FA0170E09F01241B350B04
:100270002617370724F49091FA009193F6CF109245
:10028000EE000895469A00C000C046980895CF93A6
:10029000C82F662311F0449A01C044984598559A96
:1002A0003F9A509A519A5998589847985D98C7FD27
:1002B000599AC6FD589AC5FD479AC4FD5D9A0E9499
:1002C00042015998589847985D98C3FD599AC2FDC4
:1002D000589AC1FD479AC0FD5D9A0E9442015D9AFD
:1002E000479A589A599ACF9108954498459A5598A3
:1002F0003F9850985198469A00C000C04D9B02C04C
:1003000080E101C080E03799806248998064499912
:100310008068469800C000C0469A00C000C04D9951
:1003200081603799826048998460499988604698CD
:1003300008950E94750187FDFCCF85E08A95F1F74D
:1003400000000C947501CF93C82F0E94990160E0C2
:100350008C2FCF910C944701CF93C82F0E94990105
:1003600061E08C2FCF910C944701611102C080583D
:1003700001C080540C94A3010E94990190E008955B
:1003800081E00C94A30182E00C94A301CF93C82FC9
:100390000E949901CA3049F4803410F080E001C015
:1003A00080E48058CF910C94A30161E08C2FCF9111
:1003B0000C944701CF93DF93EC018991882319F0C6
:1003C0000E94C601FACFDF91CF910895CF93DF93BA
:1003D000FC018491EF012196882321F00E94C6013F
:1003E000FE01F7CFDF91CF910895CF93C82F3C9AAC
:1003F0003D9A3E9A559A3F9A509A519A8FE79EE3BA
:100400000197F1F700C00000479A5D9A0E944201EF
:1004100087E893E10197F1F700C000000E944201D4
:1004200095E59A95F1F700000E94420185E58A95CD
:10043000F1F700005D980E94420195E59A95F1F769
:10044000000088E20E94A30188E00E94A3010E94AC
:10045000C00186E00E94A3018C2FCF910C94A301D0
:100460001F920F920FB60F9211248F938091160155
:1004700080FF09C08091D200809315018091160100
:100480008E7F809316018F910F900FBE0F901F905B
:100490001895E8ECF0E080818F6080838CE090E03C
:1004A0009093CE008093CD00EAECF0E080818160F3
:1004B00080831092160108959091C90094FDFCCF9D
:1004C0008093D2000895FC0170E09F01281B390B36
:1004D0002617370744F42091C90024FDFCCF219151
:1004E0002093D200F2CF8091C90084FDFCCF8AE036
:1004F0008093D2008091C90084FDFCCF8DE0809371
:10050000D200089580911601816080931601809138
:10051000160180FDFCCF80911501089594B1936878
:1005200094B9539A9CB534E0639FB0011124692BB0
:100530006CBD9CB59065892B8CBD5093190140937F
:100540001801209317014532510551F434B181E06F
:1005500090E001C0880F2A95EAF7832B84B926C062
:100560004832510551F437B181E090E001C0880F65
:100570002A95EAF7832B87B919C04B32510551F4FC
:100580003AB181E090E001C0880F2A95EAF7832B09
:100590008AB90CC04E32510549F43DB181E090E07A
:1005A00001C0880F2A95EAF7832B8DB9E0911801D5
:1005B000F0911901208181E090E00090170102C0C4
:1005C000880F991F0A94E2F7822B80830895E091A7
:1005D0001801F0911901208181E090E0009017014D
:1005E00002C0880F991F0A94E2F7809582238083C6
:1005F00008958EBD0DB407FEFDCF8EB5FB0180833F
:100600000895EF92FF920F931F93CF93DF938C0186
:10061000EB017C01E40EF11C0E151F0541F0BE013B
:10062000F80181918F010E94F9022196F5CFDF91A7
:10063000CF911F910F91FF90EF900895E0911801D5
:10064000F0911901208181E090E00090170102C033
:10065000880F991F0A94E2F7822B808308951F92D6
:100660000F920FB60F9211242F933F934F935F93E6
:100670006F937F938F939F93AF93BF93EF93FF936A
:100680001092ED008091EE0085FF31C08091FA005C
:10069000809303018091FA00809304018091FA0015
:1006A000809305019091FA00909306019091FA00D1
:1006B000909307019091FA00909308019091FA00AD
:1006C000909309018F3F21F480911401846003C04D
:1006D000809114018B7F809314011092EE002FEF14
:1006E00030E047E06BE070E080E00E94E00080E1F5
:1006F0008093ED008091EE0085FF33C08091FA0079
:10070000809303018091FA00809304018091FA00A4
:10071000809305018091FA00809306019091FA0080
:10072000909307019091FA00909308019091FA003C
:1007300090930901282F30E030938B0020938A009A
:10074000811105C080911401806180931401109281
:10075000EE002FEF30E047E060E170E081E00E94C2
:10076000E00080E38093ED008091EE0085FF29C0DA
:100770008091FA00809303018091FA008093040134
:100780008091FA00809305018091FA008093060120
:100790008091FA00809307018091FA00809308010C
:1007A000811105C080911401806280931401109220
:1007B000EE002FEF30E046E06EE070E083E00E9454
:1007C000E00080E28093ED008091EE0085FF32C072
:1007D0008091FA00809303019091FA0090930401B4
:1007E0009091FA00909305019091FA009093060180
:1007F0009091FA00909307018F3F31F4809114019A
:100800008064809314010CC0809114018F7B8093CD
:100810001401809114018D7F8093140110920B01BB
:100820001092EE002FEF30E044E06DE070E082E0E7
:100830000E94E00080E48093ED008091EE0085FF4F
:1008400023C08091FA00809303019091FA00909365
:1008500004019091FA00909305019091FA00909311
:1008600006019091FA009093070190E0909389001F
:10087000809388001092EE002FEF30E044E06CE0AF
:1008800070E084E00E94E000FF91EF91BF91AF9192
:100890009F918F917F916F915F914F913F912F9198
:1008A0000F900FBE0F901F9018951F920F920FB6CA
:1008B0000F9211248F93369907C0809114018260A2
:1008C000809314012E9A06C0809114018D7F80932D
:1008D00014012E988F910F900FBE0F901F901895B6
:1008E0001F920F920FB60F9211244A9B02C0409A9A
:1008F00001C040980F900FBE0F901F9018951F9247
:100900000F920FB60F9211248F93809102018B30BA
:1009100038F08091140181608093140110920201DB
:10092000809102018F5F809302018F910F900FBE23
:100930000F901F90189582E084BD85E085BDEEE69E
:10094000F0E080818260808387E287BD089578949B
:1009500084B1886784B987B1836287B9509A5898FF
:100960003E98469A5D9A409AE8E6F0E0808186607B
:100970008083EBE6F0E0808180648083ECE6F0E049
:10098000808184608083389A399A529AE0E8F0E056
:100990008081816F808380818D7A8083E1E8F0E0BF
:1009A00080818160808380818860808380818F7E68
:1009B000808308958091140184FF03C0589A109297
:1009C0000B018091140185FF03C02B9A10920B013B
:1009D0000895EAE7F0E0808185688083EBE7F0E046
:1009E000808180728083ECE7F0E080818064808386
:1009F0008081816080830895ECE7F0E080818260EF
:100A00008083EAE7F0E080818064808380917800D1
:100A10009091790096958795969587958093130187
:100A200008952FEF8EE994E2215080409040E1F745
:100A300000C000000E94A70480E00E9452000E94B3
:100A4000E9042FEF30E047E06BE070E080E00E94C7
:100A5000E0002FEF30E047E060E170E081E00E94CD
:100A6000E0002FEF30E044E06DE070E082E00E94B3
:100A7000E0002FEF30E046E06EE070E083E00E949F
:100A8000E0002FEF30E044E06CE070E084E00E9492
:100A9000E0000E949B048091140181608093140106
:100AA000D0E2CFEF8091140180FFFCCF8091140140
:100AB0008E7F8093140185B18D2785B90E94DA0459
:100AC0000E94FC048091130180930C012BE031E023
:100AD00043E06FE070E085E00E948A0080910B01A6
:100AE00080FD19C08091140182FF15C0809114010E
:100AF00086FF11C08091140181FF0DC0459A2FE738
:100B00008FE492E1215080409040E1F700C0000066
:100B10004598C0930B018091140182FF02C0409A56
:100B200001C040988091140186FF02C0419A01C023
:100B300041988091140186FD06C08091140182FFC6
:100B400002C02C9A01C02C988091140181FF03C02F
:100B5000C0930D01A7CF10920D01A4CFF894FFCF41
:00000001FF
