:100000000C943E000C9450000C9450000C94500042
:100010000C9450000C9450000C9450000C94500020
:100020000C9450000C9450000C9450000C94500010
:100030000C9450000C9450000C9450000C94500000
:100040000C9450000C9450000C9450000C945000F0
:100050000C9452000C9450000C9450000C945000DE
:100060000C9450000C9450000C9450000C945000D0
:100070000C9450000C9450000C94500011241FBE9E
:10008000CFEFD4E0DEBFCDBF21E0A0E0B1E001C002
:100090001D92A530B207E1F70E942F030C943B0399
:1000A0000C9400001F920F920FB60F9211248F93A1
:1000B0008091010180FF09C08091D20080930001EE
:1000C000809101018E7F809301018F910F900FBE6F
:1000D0000F901F901895E8ECF0E080818F6080838E
:1000E0008CE090E09093CE008093CD00EAECF0E0BD
:1000F0008081816080831092010108959091C900F0
:1001000094FDFCCF8093D2000895FC0170E09F0124
:10011000281B390B2617370744F42091C90024FD0A
:10012000FCCF21912093D200F2CF8091C90084FDB1
:10013000FCCF8AE08093D2008091C90084FDFCCF7F
:100140008DE08093D20008958091010181608093B9
:1001500001018091010180FDFCCF80910001089593
:1001600094B1936894B9539A9CB534E0639FB001FD
:100170001124692B6CBD9CB59065892B8CBD509367
:10018000040140930301209302014532510551F4CB
:1001900034B181E090E001C0880F2A95EAF7832B03
:1001A00084B926C04832510551F437B181E090E05E
:1001B00001C0880F2A95EAF7832B87B919C04B3203
:1001C000510551F43AB181E090E001C0880F2A95C1
:1001D000EAF7832B8AB90CC04E32510549F43DB180
:1001E00081E090E001C0880F2A95EAF7832B8DB952
:1001F000E0910301F0910401208181E090E0009002
:10020000020102C0880F991F0A94E2F7822B8083B3
:100210000895E0910301F0910401208181E090E0D4
:100220000090020102C0880F991F0A94E2F780959E
:100230008223808308958EBD0DB407FEFDCF8EB559
:10024000FB0180830895EF92FF920F931F93CF934A
:10025000DF938C01EB017C01E40EF11C0E151F05F0
:1002600041F0BE01F80181918F010E941B0121968E
:10027000F5CFDF91CF911F910F91FF90EF900895EF
:10028000E0910301F0910401208181E090E0009071
:10029000020102C0880F991F0A94E2F7822B808323
:1002A0000895469A00C000C046980895CF93C82F7D
:1002B000662311F0449A01C044984598559A3F9A94
:1002C000509A519A5998589847985D98C7FD599AED
:1002D000C6FD589AC5FD479AC4FD5D9A0E9451011A
:1002E0005998589847985D98C3FD599AC2FD589AF5
:1002F000C1FD479AC0FD5D9A0E9451015D9A479ADF
:10030000589A599ACF9108954498459A55983F988C
:1003100050985198469A00C000C04D9B02C080E1A1
:1003200001C080E03799806248998064499980686B
:10033000469800C000C0469A00C000C04D99816038
:1003400037998260489984604999886046980895F1
:100350000E94840187FDFCCF85E08A95F1F70000BB
:100360000C948401CF93C82F0E94A80160E08C2FC9
:10037000CF910C945601CF93C82F0E94A80161E041
:100380008C2FCF910C945601611102C0805801C08E
:1003900080540C94B2010E94A80190E0089581E07D
:1003A0000C94B20182E00C94B201CF93C82F0E944A
:1003B000A801CA3049F4803410F080E001C080E424
:1003C0008058CF910C94B20161E08C2FCF910C94A6
:1003D0005601CF93DF93EC018991882319F00E9495
:1003E000D501FACFDF91CF910895CF93DF93FC0130
:1003F0008491EF012196882321F00E94D501FE010E
:10040000F7CFDF91CF910895CF93C82F3C9A3D9AB3
:100410003E9A559A3F9A509A519A8FE79EE30197D8
:10042000F1F700C00000479A5D9A0E94510187E8E9
:1004300093E10197F1F700C000000E94510195E59A
:100440009A95F1F700000E94510185E58A95F1F730
:1004500000005D980E94510195E59A95F1F7000022
:1004600088E20E94B20188E00E94B2010E94CF019E
:1004700086E00E94B2018C2FCF910C94B20191E0E2
:100480009093D8001092E5009091D90091609093DC
:10049000D9001092E20094E09093E30092E19093EF
:1004A000E4009091DB00906A9093DB001092DF00F3
:1004B0009FE39093DE0090E0292F2295207F2093E8
:1004C000ED001092EF001092EE009F5F9630A1F7C2
:1004D000811104C08091D800826005C0823029F467
:1004E0008091D8008A608093D80080E00895E091E0
:1004F000DC00F0E0082E02C0F595E7950A94E2F7DB
:10050000E0FD2EC08295807F8093ED001092EE007A
:10051000CB0153E0969587955A95E1F78093F300C8
:100520006295660F607E6093F2001092F100109267
:10053000F0001092F7001092F6001092F500109261
:10054000F400922FF9018E2F891B841720F48191DA
:100550008093FA00F8CF1092EF0040644093EF00D0
:1005600080E008952091DC0030E002C035952795A9
:100570008A95E2F720FD0DC08091EE0086FF05C050
:100580008091EE008F7B8093EE008091EE008111D0
:1005900002C080E0089583E00895E091DC00F0E07F
:1005A000082E02C0F595E7950A94E2F7E0FD2EC00B
:1005B0008295807F8093ED001092EE00CB0153E096
:1005C000969587955A95E1F78093F3006295660FAB
:1005D000607E6093F2001092F1001092F000C90169
:1005E00063E0969587956A95E1F78093F7002295E9
:1005F000220F207E2093F6001092F50085E0809374
:10060000F4001092EF0040684093EF0080E00895FE
:100610008295807F8093ED008091EE0085FF07C07A
:100620008091EE008F7D8093EE0080E001C081E03C
:100630009091EE0097FF04C06091EF006F6082E040
:10064000FA0170E09F01241B350B2617370724F4AD
:100650009091FA009193F6CF1092EE000895209AAF
:1006600091E085B1892785B9E7E9FAE33197F1F798
:0A06700000C00000F6CFF894FFCFA1
:00000001FF
