:100000000C943E000C945B000C945B000C945B0021
:100010000C945B000C945B000C945B000C945B00F4
:100020000C945B000C945B000C945B000C945B00E4
:100030000C945B000C945B000C945B000C94990294
:100040000C945B000C945B000C94B7020C945B0066
:100050000C943B020C945B000C9469030C945B00C1
:100060000C945B000C945B000C945B000C945B00A4
:100070000C945B000C945B000C945B0011241FBE7D
:10008000CFEFD4E0DEBFCDBF11E0A0E0B1E0E4E40B
:10009000F4E102C005900D92A033B107D9F721E039
:1000A000A0E3B1E001C01D92A83AB207E1F70E94B7
:1000B000DD060C94200A0C94000091E09093D80087
:1000C0001092E5009091D90091609093D900109220
:1000D000E20094E09093E30092E19093E400909129
:1000E000DB00906A9093DB001092DF009FE3909317
:1000F000DE0090E0292F2295207F2093ED001092C2
:10010000EF001092EE009F5F9630A1F7811104C0BE
:100110008091D800826005C0823029F48091D80097
:100120008A608093D80080E00895E091DC00F0E0E0
:10013000082E02C0F595E7950A94E2F7E0FD2EC07F
:100140008295807F8093ED001092EE00CB0153E00A
:10015000969587955A95E1F78093F3006295660F1F
:10016000607E6093F2001092F1001092F000109205
:10017000F7001092F6001092F5001092F400922F02
:10018000F9018E2F891B841720F481918093FA0046
:10019000F8CF1092EF0040644093EF0080E00895A4
:1001A0002091DC0030E002C0359527958A95E2F772
:1001B00020FD0DC08091EE0086FF05C08091EE000D
:1001C0008F7B8093EE008091EE00811102C080E071
:1001D000089583E00895E091DC00F0E0082E02C06D
:1001E000F595E7950A94E2F7E0FD2EC08295807FB1
:1001F0008093ED001092EE00CB0153E09695879529
:100200005A95E1F78093F3006295660F607E6093E4
:10021000F2001092F1001092F000C90163E096958F
:1002200087956A95E1F78093F7002295220F207E4B
:100230002093F6001092F50085E08093F400109270
:10024000EF0040684093EF0080E008958295807F42
:100250008093ED008091EE0085FF07C08091EE0055
:100260008F7D8093EE0080E001C081E09091EE00F0
:1002700097FF04C06091EF006F6082E0FA0170E0C8
:100280009F01241B350B2617370724F49091FA00A1
:100290009193F6CF1092EE000895469A00C000C0E8
:1002A00046980895CF93C82F662311F0449A01C051
:1002B00044984598559A3F9A509A519A5998589807
:1002C00047985D98C7FD599AC6FD589AC5FD479A4B
:1002D000C4FD5D9A0E944D015998589847985D98C1
:1002E000C3FD599AC2FD589AC1FD479AC0FD5D9A57
:1002F0000E944D015D9A479A589A599ACF91089554
:100300004498459A55983F9850985198469A00C0FD
:1003100000C04D9B02C080E101C080E0379980623F
:100320004899806449998068469800C000C0469A00
:1003300000C000C04D9981603799826048998460FF
:1003400049998860469808950E94800187FDFCCFF6
:1003500085E08A95F1F700000C948001CF93C82FB7
:100360000E94A40160E08C2FCF910C945201CF9396
:10037000C82F0E94A40161E08C2FCF910C945201F0
:10038000611102C0805801C080540C94AE010E94DB
:10039000A40190E0089581E00C94AE0182E00C94F9
:1003A000AE01CF93C82F0E94A401CA3049F4803413
:1003B00010F080E001C080E48058CF910C94AE0131
:1003C00061E08C2FCF910C945201CF93DF93EC011D
:1003D0008991882319F00E94D101FACFDF91CF9142
:1003E0000895CF93DF93FC018491EF012196882338
:1003F00021F00E94D101FE01F7CFDF91CF91089546
:10040000CF93C82F3C9A3D9A3E9A559A3F9A509A5C
:10041000519A8FE79EE30197F1F700C00000479AD9
:100420005D9A0E944D0187E893E10197F1F700C0C2
:1004300000000E944D0195E59A95F1F700000E9499
:100440004D0185E58A95F1F700005D980E944D0108
:1004500095E59A95F1F7000088E20E94AE0188E0E8
:100460000E94AE010E94CB0186E00E94AE018C2F5B
:10047000CF910C94AE011F920F920FB60F921124E0
:100480008F9380915B0180FF09C08091D20080939F
:100490005A0180915B018E7F80935B018F910F9059
:1004A0000FBE0F901F901895E8ECF0E080818F60F0
:1004B00080838CE090E09093CE008093CD00EAECB6
:1004C000F0E080818160808310925B0108959091BB
:1004D000C90094FDFCCF8093D2000895FC0170E028
:1004E0009F01281B390B2617370744F42091C900B8
:1004F00024FDFCCF21912093D200F2CF8091C9003E
:1005000084FDFCCF8AE08093D2008091C90084FDF5
:10051000FCCF8DE08093D200089580915B018160D3
:1005200080935B0180915B0180FDFCCF80915A013B
:1005300008951F920F920FB60F9211248F939F93DD
:10054000809131018F5F8093310190913001981734
:1005500038F48091580182608093580110923101E3
:100560009F918F910F900FBE0F901F9018951F9223
:100570000F920FB60F9211242F933F934F935F93D7
:100580006F937F938F939F93AF93BF93EF93FF935B
:10059000CF93DF9300D0CDB7DEB71092ED008091FE
:1005A000EE0085FF3BC08091FA008093320180917C
:1005B000FA00809333018091FA0080933401909186
:1005C000FA00909335019091FA0090933601909142
:1005D000FA00909337019091FA00909338018F3F81
:1005E00021F48091590181600DC090914B019923B4
:1005F00021F090914A01911107C0811105C08091AD
:1006000059018E7F809359011092EE002FEF30E058
:1006100047E06BE070E080E00E94EB0080E18093B7
:10062000ED008091EE0085FF21C08091FA008A8361
:100630009A81809159019F3F41F4806280935901D2
:1006400095B188E0892785B907C08F7D80935901CE
:1006500098B180E4892788B91092EE002FEF30E03E
:1006600043E06FE070E081E00E94EB0080E2809365
:10067000ED008091EE0085FF17C08091FA0089831C
:100680009981809159019F3F11F4806801C08F7753
:10069000809359011092EE002FEF30E041E061E0CD
:1006A00070E082E00E94EB000F900F90DF91CF91FD
:1006B000FF91EF91BF91AF919F918F917F916F913A
:1006C0005F914F913F912F910F900FBE0F901F9010
:1006D00018951F920F920FB60F9211248F9380914D
:1006E00059011E9902C0886001C0877F809359011B
:1006F000809159011D9902C0846001C08B7F809355
:100700005901809159011F9902C0806101C08F7EFB
:10071000809359018F910F900FBE0F901F901895E5
:1007200082E084BD85E085BDEEE6F0E080818260F8
:10073000808387E287BD0895EAE7F0E080818568DD
:100740008083EBE7F0E0808180728083ECE7F0E06B
:100750008081806480838081816080830895E9E363
:10076000F1E0108211821282138281E0848315826B
:10077000168217829F0148E060EC70E084E00C94E0
:1007800095003E9A239A249A209A219A0895E8E6A1
:10079000F0E0808181608083EAE6F0E08081806E15
:1007A0008083089580E480937C0080917C00826047
:1007B00080937C0080917A00806480937A0080919D
:1007C0007A0086FDFCCF809178009091790085E0D9
:1007D0008093550108958091590182FF04C08FEFE5
:1007E0008093440102C0109244018091590183FF1B
:1007F00004C08FEF8093430102C0109243018091A7
:10080000590184FF04C08FEF809342010895109234
:10081000420108958091590187FF06C010924B0153
:1008200010924A0110924601089520915201309190
:100830005301809150019091510142E3429FB001D8
:10084000439F700D1124E3E2E89FA001E99F500D42
:1008500011244617570778F047E3429FB001439FA2
:10086000700D1124AC01E5E0440F551FEA95E1F746
:100870006417750730F4809145018F5F80934501BF
:100880000BC0205131092F3E3340A8F740978F3ECF
:10089000934088F71092450190914501809159014C
:1008A000973010F0806401C08F7B809359010895C8
:1008B00080E480937C0080917C00886080937C0041
:1008C00080917A00806480937A0080917A0086FD1E
:1008D000FCCF209178003091790080E480937C00F7
:1008E00080917C00896080937C0080917A00806494
:1008F00080937A0080917A0086FDFCCF8091780009
:1009000090917900309353012093520190935101BB
:1009100080935001089580915201909153019695D2
:100920008795969587952091500130915101369584
:100930002795369527958633910530F0843A9105B1
:1009400028F083EA90E002C086E390E02A34310583
:1009500030F02F3F310528F02EEF30E002C02AE4BE
:1009600030E0AC0146535109EFEFE49FC001E59F31
:10097000900D11246DE670E00E941B07462FF72FA3
:100980002A543109E29FC001E39F900D112464EBCA
:1009900070E00E941B0740934E01F0934F0160935B
:1009A0004C0170934D0140934B0160934A010895AF
:1009B0000E9458040E948B040E94150420914B0150
:1009C00080914A0190E0820F911D95958795209125
:1009D0004901E22FF0E0E356FE4F3081AC01431BAA
:1009E00051096091470170914801460F571F50937C
:1009F000480140934701808381E0820F883019F0DD
:100A0000809349010895109249010895809147010A
:100A100090914801A0E0B0E023E0B695A7959795A6
:100A200087952A95D1F78093460108950F931F93D8
:100A3000CF93DF93CDB7DEB7C054D1090FB6F8948A
:100A4000DEBF0FBECDBF809146011F928F9389E01C
:100A500091E09F938F938E010F5F1F4F1F930F9312
:100A60000E943607F80101900020E9F73197BF0195
:100A7000601B710BC8010E946E02809153018F931D
:100A8000809152018F9382E191E09F938F931F9306
:100A90000F930E943607F80101900020E9F7319783
:100AA000BF01601B710BC8010E946E028091510151
:100AB0008F93809150018F9389E191E09F938F9361
:100AC0001F930F930E943607F80101900020E9F769
:100AD0003197BF01601B710BC8010E946E0260E27A
:100AE00071E0C8010E942F07F80101900020E9F78A
:100AF0003197BF01601B710BC8010E946E020FB6D7
:100B0000F894DEBF0FBECDBFC05CDF4F0FB6F894C8
:100B1000DEBF0FBECDBFDF91CF911F910F91089522
:100B20000F931F93CF93DF93CDB7DEB7A0970FB688
:100B3000F894DEBF0FBECDBF809145011F928F9309
:100B400082E291E09F938F938E010F5F1F4F1F935F
:100B50000F930E943607F80101900020E9F73197C2
:100B6000BF01601B710BC8010E946E020F900F90B5
:100B70000F900F900F900F90A0960FB6F894DEBFD5
:100B80000FBECDBFDF91CF911F910F91089580913E
:100B9000590108950895089590915901892F8072FF
:100BA00095FD809146018093410180915901829584
:100BB00081708195809342018091590183FB882740
:100BC00080F98195809343018091590182FB8827A8
:100BD00080F98195809344018091590186FD03C07D
:100BE0008091590180FD1092410121E431E044E0FF
:100BF0006CE070E083E00E9495008091590186FDD1
:100C000004C08091460190E002C080E090E049E09D
:100C1000489F9001499F300D112420933901309352
:100C20003A0110923B0110923C0110923D018091DB
:100C3000590185FB882780F980933E0110923F017E
:100C4000109240018091590186FD08C080915901A0
:100C500080FD04C08091590185FD06C010923901C4
:100C600010923A0110923E0129E331E048E060EC35
:100C700070E084E00C94950094B1936894B9539A11
:100C80009CB534E0639FB0011124692B6CBD9CB509
:100C90009065892B8CBD5093A7014093A6012093AA
:100CA000A5014532510551F434B181E090E001C015
:100CB000880F2A95EAF7832B84B926C0483251055C
:100CC00051F437B181E090E001C0880F2A95EAF72E
:100CD000832B87B919C04B32510551F43AB181E0E9
:100CE00090E001C0880F2A95EAF7832B8AB90CC0DF
:100CF0004E32510549F43DB181E090E001C0880FCA
:100D00002A95EAF7832B8DB9E091A601F091A7010E
:100D1000208181E090E00090A50102C0880F991F1A
:100D20000A94E2F7822B80830895E091A601F09166
:100D3000A701208181E090E00090A50102C0880F0A
:100D4000991F0A94E2F780958223808308958EBDCF
:100D50000DB407FEFDCF8EB5FB0180830895EF92A1
:100D6000FF920F931F93CF93DF938C01EB017C01D4
:100D7000E40EF11C0E151F0541F0BE01F801819132
:100D80008F010E94A7062196F5CFDF91CF911F9189
:100D90000F91FF90EF900895E091A601F091A701C7
:100DA000208181E090E00090A50102C0880F991F8A
:100DB0000A94E2F7822B808308950E9490030E9498
:100DC0009C03789480E00E945D000E94C1030E9411
:100DD00054020E94C7030E94AF032FEF30E043E0AC
:100DE0006FE070E081E00E94EB002FEF30E047E021
:100DF0006BE070E080E00E94EB002FEF30E041E01C
:100E000061E070E082E00E94EB008091580181FF78
:100E1000FCCF809158018D7F809358010E94D804A7
:100E20000E9406050E940A040E94160580E090E0D8
:100E30000E94CC05EACFAA1BBB1B51E107C0AA1F29
:100E4000BB1FA617B70710F0A61BB70B881F991F6B
:100E50005A95A9F780959095BC01CD010895FB01A5
:100E6000DC0101900D920020E1F70895AEE0B0E0C2
:100E7000ECE3F7E00C94F7090D891E8986E08C837A
:100E80001A8309838FEF9FE79E838D83AE01475EB0
:100E90005F4F6F89788DCE0101960E945807EF81D0
:100EA000F885E00FF11F10822E96E4E00C94130AEF
:100EB000ABE0B0E0EEE5F7E00C94E9096C017B01F2
:100EC0008A01FC0117821682838181FFCCC1CE0189
:100ED00001963C01F6019381F70193FD859193FF03
:100EE00081917F01882309F4BAC1853239F493FDD9
:100EF000859193FF81917F01853229F4B60190E0BD
:100F00000E944F09E7CF912C212C312CFFE1F315E2
:100F1000D8F08B3279F038F4803279F08332A1F452
:100F2000232D20611DC08D3261F0803369F4232DA3
:100F3000216016C0832D8260382EE32DE4603E2EA2
:100F40002AC0F32DF8601DC037FC2DC020ED280FFE
:100F50002A3040F08E32B9F436FC81C1232D206452
:100F6000322E19C036FE06C08AE0989E200D11244C
:100F7000922E11C0EAE02E9E200D1124222EF32D78
:100F8000F0623F2E08C08C3621F4832D8068382E05
:100F900002C0883641F4F70193FD859193FF81915A
:100FA0007F018111B3CF982F9F7D9554933028F402
:100FB0000C5F1F4F9FE399830DC0833631F0833759
:100FC00071F0833509F059C021C0F801808189830F
:100FD0000E5F1F4F88248394912C530113C0280166
:100FE000F2E04F0E511CF801A080B18036FE03C024
:100FF000692D70E002C06FEF7FEFC5010E944409C8
:101000004C018201F32DFF773F2E16C0280122E00C
:10101000420E511CF801A080B18036FE03C0692D3C
:1010200070E002C06FEF7FEFC5010E9439094C01EB
:10103000F32DF0683F2E820133FC1BC0822D90E01F
:1010400088169906B0F4B60180E290E00E944F093C
:101050002A94F4CFF50137FC859137FE81915F0129
:10106000B60190E00E944F0921102A9421E0821AD3
:1010700091088114910471F7E8C0843611F0893623
:1010800041F5F80137FE07C060817181828193814B
:101090000C5F1F4F08C060817181072E000C880B08
:1010A000990B0E5F1F4FF32DFF763F2E97FF09C060
:1010B00090958095709561957F4F8F4F9F4FF06809
:1010C0003F2E2AE030E0A3010E948B09882E86186B
:1010D00045C0853731F4232D2F7EB22E2AE030E033
:1010E00025C0932D997FB92E8F36C1F018F488351D
:1010F00079F0B5C0803719F0883721F0B0C0E92FFA
:10110000E061BE2EB4FE0DC0FB2DF460BF2E09C001
:1011100034FE0AC0292F2660B22E06C028E030E037
:1011200005C020E130E002C020E132E0F801B7FE66
:1011300007C060817181828193810C5F1F4F06C05F
:101140006081718180E090E00E5F1F4FA3010E94DB
:101150008B09882E8618FB2DFF773F2E36FE0DC09B
:10116000232D2E7FA22E891458F434FE0BC032FC9E
:1011700009C0832D8E7EA82E05C0B82CA32C03C0D9
:10118000B82C01C0B92CA4FE0FC0FE01E80DF11D62
:101190008081803321F49A2D997EA92E09C0A2FE68
:1011A00006C0B394B39404C08A2D867809F0B39432
:1011B000A3FC11C0A0FE06C0B21488F4280C922C27
:1011C0009B180EC0B21460F4B60180E290E00E9459
:1011D0004F09B394F7CFB21418F42B1802C0982C0F
:1011E000212CA4FE10C0B60180E390E00E944F09BC
:1011F000A2FE17C0A1FC03C088E790E002C088E50A
:1012000090E0B6010CC08A2D867859F0A1FE02C08C
:101210008BE201C080E2A7FC8DE2B60190E00E9463
:101220004F09891438F4B60180E390E00E944F0919
:101230009A94F7CF8A94F301E80DF11D8081B601ED
:1012400090E00E944F098110F5CF222009F442CE90
:10125000B60180E290E00E944F092A94F6CFF60191
:101260008681978102C08FEF9FEF2B96E2E10C946D
:10127000050AFC010590615070400110D8F7809577
:1012800090958E0F9F1F0895FC0161507040019052
:101290000110D8F7809590958E0F9F1F08950F939A
:1012A0001F93CF93DF93FB01238121FD03C08FEFB9
:1012B0009FEF2CC022FF16C04681578124813581C3
:1012C0004217530744F4A081B1819D012F5F3F4F26
:1012D000318320838C93268137812F5F3F4F378363
:1012E000268314C08B01EC01FB010084F185E02D05
:1012F0000995892BE1F6D80116968D919C91179747
:10130000019617969C938E931697CE01DF91CF91FD
:101310001F910F910895FA01AA27283051F1203129
:1013200081F1E8946F936E7F6E5F7F4F8F4F9F4F79
:10133000AF4FB1E03ED0B4E03CD0670F781F891FBB
:101340009A1FA11D680F791F8A1F911DA11D6A0F89
:10135000711D811D911DA11D20D009F468943F913C
:101360002AE0269F11243019305D3193DEF6CF013B
:101370000895462F4770405D4193B3E00FD0C9F701
:10138000F6CF462F4F70405D4A3318F0495D31FD6E
:101390004052419302D0A9F7EACFB4E0A6959795C1
:1013A000879577956795BA95C9F700976105710597
:1013B00008959B01AC010A2E0694579547953795E1
:1013C0002795BA95C9F7620F731F841F951FA01D3B
:1013D00008952F923F924F925F926F927F928F92D9
:1013E0009F92AF92BF92CF92DF92EF92FF920F93B4
:1013F0001F93CF93DF93CDB7DEB7CA1BDB0B0FB6BE
:10140000F894DEBF0FBECDBF09942A88398848887A
:101410005F846E847D848C849B84AA84B984C88410
:10142000DF80EE80FD800C811B81AA81B981CE0F07
:10143000D11D0FB6F894DEBF0FBECDBFED010895EC
:04144000F894FFCF4E
:10144400062A01F803DA008E02746F75743A2025B7
:10145400640076313A2025640076323A202564000F
:1014640020007431307469636B733A202564000082
:00000001FF
