:100000000C943E000C945B000C945B000C945B0021
:100010000C945B000C945B000C945B000C945B00F4
:100020000C945B000C945B000C945B000C945B00E4
:100030000C945B000C945B000C945B000C945D00D2
:100040000C945B000C945B000C947B000C945B00A4
:100050000C947D060C945B000C9426010C945B00C0
:100060000C945B000C945B000C945B000C945B00A4
:100070000C945B000C945B000C945B0011241FBE7D
:10008000CFEFD4E0DEBFCDBF11E0A0E0B1E0EEE302
:10009000F4E102C005900D92A232B107D9F721E038
:1000A000A2E2B1E001C01D92AA35B207E1F70E94B9
:1000B000DB060C941D0A0C9400001F920F920FB6E1
:1000C0000F9211248F939F93809123018F5F8093D0
:1000D000230190912201981738F480914A0182609F
:1000E00080934A01109223019F918F910F900FBE30
:1000F0000F901F9018951F920F920FB60F92112418
:100100002F933F934F935F936F937F938F939F931F
:10011000AF93BF93EF93FF93CF93DF9300D0CDB70F
:10012000DEB71092ED008091EE0085FF3BC080911C
:10013000FA00809324018091FA0080932501809138
:10014000FA00809326019091FA00909327019091F4
:10015000FA00909328019091FA00909329019091D0
:10016000FA0090932A018F3F21F480914B01816026
:100170000DC090913D01992321F090913C01911186
:1001800007C0811105C080914B018E7F80934B0188
:100190001092EE002FEF30E047E06BE070E080E07F
:1001A0000E947A0580E18093ED008091EE0085FF4A
:1001B00017C08091FA008A839A8180914B019F3FFA
:1001C00011F4806201C08F7D80934B011092EE008C
:1001D0002FEF30E043E06FE070E081E00E947A05AD
:1001E00080E28093ED008091EE0085FF1AC080913F
:1001F000FA008983998180914B019F3F29F480689F
:1002000080934B01469A03C08F7780934B011092E5
:10021000EE002FEF30E041E061E070E082E00E940C
:100220007A050F900F90DF91CF91FF91EF91BF91E1
:10023000AF919F918F917F916F915F914F913F917E
:100240002F910F900FBE0F901F9018951F920F9235
:100250000FB60F9211248F9380914B011E9902C00B
:10026000886001C0877F80934B0180914B011D996D
:1002700002C0846001C08B7F80934B0180914B0151
:100280001F9902C0806101C08F7E80934B018F91C6
:100290000F900FBE0F901F90189582E084BD85E0EF
:1002A00085BDEEE6F0E080818260808387E287BDD5
:1002B0000895EAE7F0E0808185688083EBE7F0E06D
:1002C000808180728083ECE7F0E0808180648083AD
:1002D0008081816080830895EBE2F1E010821182D9
:1002E0001282138281E084831582168217829F0115
:1002F00048E060EC70E084E00C9424053E9A239A78
:10030000249A209A219A0895E8E6F0E0808181609D
:100310008083EAE6F0E08081806E8083089580E447
:1003200080937C0080917C00826080937C0080912F
:100330007A00806480937A0080917A0086FDFCCFF9
:10034000809178009091790085E08093470108952D
:1003500080914B0182FF04C08FEF8093360102C071
:100360001092360180914B0183FF04C08FEF809380
:10037000350102C01092350180914B0184FF04C009
:100380008FEF809334010895109234010895809185
:100390004B0187FF12C010923D0110923C01109258
:1003A000380198B180E4892788B995B188E0892718
:1003B00085B995B180E1892785B9089520914401D7
:1003C00030914501809142019091430142E3429F67
:1003D000B001439F700D1124E3E2E89FA001E99F63
:1003E000500D11244617570778F047E3429FB0019C
:1003F000439F700D1124AC01E5E0440F551FEA95B1
:10040000E1F76417750730F4809137018F5F8093AF
:1004100037010BC0205131092F3E3340A8F74097D8
:100420008F3E934088F71092370190913701809169
:100430004B01973010F0806401C08F7B80934B019B
:10044000089580E480937C0080917C008860809394
:100450007C0080917A00806480937A0080917A0099
:1004600086FDFCCF209178003091790080E4809364
:100470007C0080917C00896080937C0080917A0070
:10048000806480937A0080917A0086FDFCCF809111
:100490007800909179003093450120934401909326
:1004A0004301809342010895809144019091450158
:1004B00096958795969587952091420130914301B5
:1004C00036952795369527958633910530F0843AF1
:1004D000910528F083EA90E002C086E390E02A3498
:1004E000310530F02F3F310528F02EEF30E002C00B
:1004F0002AE430E0AC0146535109EFEFE49FC0011C
:10050000E59F900D11246DE670E00E941807462FBC
:10051000F72F2A543109E29FC001E39F900D112467
:1005200064EB70E00E94180740934001F093410192
:1005300060933E0170933F0140933D0160933C0105
:1005400008950E9421020E9454020E94DE0120911F
:100550003D0180913C0190E0820F911D959587951A
:1005600020913B01E22FF0E0E35BFE4F3081AC01D4
:10057000431B51096091390170913A01460F571F91
:1005800050933A0140933901808381E0820F883093
:1005900019F080933B01089510923B0108958091DA
:1005A000390190913A01A0E0B0E023E0B695A7951B
:1005B000979587952A95D1F78093380108950F93E1
:1005C0001F93CF93DF93CDB7DEB7C054D1090FB6D9
:1005D000F894DEBF0FBECDBF809138011F928F937C
:1005E00089E091E09F938F938E010F5F1F4F1F93C0
:1005F0000F930E943307F80101900020E9F731972B
:10060000BF01601B710BC8010E94B00680914501BB
:100610008F93809144018F9382E191E09F938F9318
:100620001F930F930E943307F80101900020E9F710
:100630003197BF01601B710BC8010E94B006809109
:1006400043018F93809142018F9389E191E09F93C1
:100650008F931F930F930E943307F801019000209E
:10066000E9F73197BF01601B710BC8010E94B0060A
:1006700060E271E0C8010E942C07F801019000209F
:10068000E9F73197BF01601B710BC8010E94B006EA
:100690000FB6F894DEBF0FBECDBFC05CDF4F0FB604
:1006A000F894DEBF0FBECDBFDF91CF911F910F91A8
:1006B0000895089580914B0185FF04C0469A2B9AB6
:1006C0002C9A089546982B982C980895809138017B
:1006D000813410F0469A01C04698809138018138E3
:1006E00010F02B9A01C02B9880913801813C10F0BA
:1006F0002C9A08952C9808958091460180FF02C09D
:10070000469A01C0469881FF02C02B9A01C02B98DF
:1007100082FF02C02C9A08952C98089590914B0165
:10072000892F807295FD80913801809333018091EB
:100730004B018295817081958093340180914B01AA
:1007400083FB882780F981958093350180914B0147
:1007500082FB882780F981958093360180914B0137
:1007600086FD03C080914B0180FD1092330123E38D
:1007700031E044E06CE070E083E00E942405809169
:100780004B0186FD04C08091380190E002C080E0FA
:1007900090E049E0489F9001499F300D112420933B
:1007A0002B0130932C0110922D0110922E011092EA
:1007B0002F0180914B0185FB882780F980933001C0
:1007C000109231011092320180914B0186FD08C0D8
:1007D00080914B0180FD04C080914B0185FD06C0D6
:1007E00010922B0110922C01109230012BE231E07B
:1007F00048E060EC70E084E00C942405469A00C068
:1008000000C046980895CF93C82F662311F0449AEC
:1008100001C044984598559A3F9A509A519A5998D0
:10082000589847985D98C7FD599AC6FD589AC5FDD6
:10083000479AC4FD5D9A0E94FE03599858984798BC
:100840005D98C3FD599AC2FD589AC1FD479AC0FDF3
:100850005D9A0E94FE035D9A479A589A599ACF91E1
:1008600008954498459A55983F9850985198469ABB
:1008700000C000C04D9B02C080E101C080E03799FC
:1008800080624899806449998068469800C000C099
:10089000469A00C000C04D9981603799826048999E
:1008A000846049998860469808950E94310487FDC4
:1008B000FCCF85E08A95F1F700000C943104CF93CA
:1008C000C82F0E94550460E08C2FCF910C94030434
:1008D000CF93C82F0E94550461E08C2FCF910C94C8
:1008E0000304611102C0805801C080540C945F045D
:1008F0000E94550490E0089581E00C945F0482E02A
:100900000C945F04CF93C82F0E945504CA3049F459
:10091000803410F080E001C080E48058CF910C94C6
:100920005F0461E08C2FCF910C940304CF93DF938D
:10093000EC018991882319F00E948204FACFDF919B
:10094000CF910895CF93DF93FC018491EF0121961D
:10095000882321F00E948204FE01F7CFDF91CF911E
:100960000895CF93C82F3C9A3D9A3E9A559A3F9A44
:10097000509A519A8FE79EE30197F1F700C000006B
:10098000479A5D9A0E94FE0387E893E10197F1F789
:1009900000C000000E94FE0395E59A95F1F7000063
:1009A0000E94FE0385E58A95F1F700005D980E949C
:1009B000FE0395E59A95F1F7000088E20E945F0436
:1009C00088E00E945F040E947C0486E00E945F042D
:1009D0008C2FCF910C945F0491E09093D8001092EB
:1009E000E5009091D90091609093D9001092E200B7
:1009F00094E09093E30092E19093E4009091DB0007
:100A0000906A9093DB001092DF009FE39093DE00EA
:100A100090E0292F2295207F2093ED001092EF0087
:100A20001092EE009F5F9630A1F7811104C0809173
:100A3000D800826005C0823029F48091D8008A6095
:100A40008093D80080E00895E091DC00F0E0082E6B
:100A500002C0F595E7950A94E2F7E0FD2EC0829575
:100A6000807F8093ED001092EE00CB0153E09695CD
:100A700087955A95E1F78093F3006295660F607E43
:100A80006093F2001092F1001092F0001092F700C3
:100A90001092F6001092F5001092F400922FF901D6
:100AA0008E2F891B841720F481918093FA00F8CF50
:100AB0001092EF0040644093EF0080E00895209191
:100AC000DC0030E002C0359527958A95E2F720FDDD
:100AD0000DC08091EE0086FF05C08091EE008F7BF7
:100AE0008093EE008091EE00811102C080E00895B5
:100AF00083E00895E091DC00F0E0082E02C0F59557
:100B0000E7950A94E2F7E0FD2EC08295807F8093FE
:100B1000ED001092EE00CB0153E0969587955A9523
:100B2000E1F78093F3006295660F607E6093F200B8
:100B30001092F1001092F000C90163E0969587953C
:100B40006A95E1F78093F7002295220F207E20938B
:100B5000F6001092F50085E08093F4001092EF000B
:100B600040684093EF0080E008958295807F8093F5
:100B7000ED008091EE0085FF07C08091EE008F7D33
:100B80008093EE0080E001C081E09091EE0097FF3D
:100B900004C06091EF006F6082E0FA0170E09F0195
:100BA000241B350B2617370724F49091FA009193F4
:100BB000F6CF1092EE00089594B1936894B9539AC9
:100BC0009CB534E0639FB0011124692B6CBD9CB5CA
:100BD0009065892B8CBD509357014093560120930B
:100BE00055014532510551F434B181E090E001C026
:100BF000880F2A95EAF7832B84B926C0483251051D
:100C000051F437B181E090E001C0880F2A95EAF7EE
:100C1000832B87B919C04B32510551F43AB181E0A9
:100C200090E001C0880F2A95EAF7832B8AB90CC09F
:100C30004E32510549F43DB181E090E001C0880F8A
:100C40002A95EAF7832B8DB9E0915601F09157016F
:100C5000208181E090E00090550102C0880F991F2B
:100C60000A94E2F7822B80830895E0915601F09177
:100C70005701208181E090E00090550102C0880F6B
:100C8000991F0A94E2F780958223808308958EBD90
:100C90000DB407FEFDCF8EB5FB0180830895EF9262
:100CA000FF920F931F93CF93DF938C01EB017C0195
:100CB000E40EF11C0E151F0541F0BE01F8018191F3
:100CC0008F010E9447062196F5CFDF91CF911F91AA
:100CD0000F91FF90EF900895E0915601F091570128
:100CE000208181E090E00090550102C0880F991F9B
:100CF0000A94E2F7822B808308951F920F920FB619
:100D00000F9211248F938091590180FF09C0809127
:100D1000D20080935801809159018E7F80935901B0
:100D20008F910F900FBE0F901F901895E8ECF0E098
:100D300080818F6080838CE090E09093CE008093E0
:100D4000CD00EAECF0E0808181608083109259014F
:100D500008959091C90094FDFCCF8093D20008952E
:100D6000FC0170E09F01281B390B2617370744F45C
:100D70002091C90024FDFCCF21912093D200F2CF15
:100D80008091C90084FDFCCF8AE08093D2008091DD
:100D9000C90084FDFCCF8DE08093D200089580913E
:100DA00059018160809359018091590180FDFCCFE8
:100DB0008091580108950E944D010E945901789434
:100DC00080E00E94EC040E947E010E9496060E9430
:100DD00084010E946C012FEF30E043E06FE070E08F
:100DE00081E00E947A052FEF30E047E06BE070E091
:100DF00080E00E947A052FEF30E041E061E070E092
:100E000082E00E947A052C9A80914A0181FFFCCFF2
:100E100080914A018D7F80934A010E94A1020E9425
:100E2000CF020E94C70180E090E00E948E03ECCFC9
:100E3000AA1BBB1B51E107C0AA1FBB1FA617B70700
:100E400010F0A61BB70B881F991F5A95A9F780951C
:100E50009095BC01CD010895FB01DC0101900D923C
:100E60000020E1F70895AEE0B0E0E9E3F7E00C948C
:100E7000F4090D891E8986E08C831A8309838FEF1C
:100E80009FE79E838D83AE01475E5F4F6F89788DAC
:100E9000CE0101960E945507EF81F885E00FF11F02
:100EA00010822E96E4E00C94100AABE0B0E0EBE583
:100EB000F7E00C94E6096C017B018A01FC011782C2
:100EC0001682838181FFCCC1CE0101963C01F601DF
:100ED0009381F70193FD859193FF81917F01882391
:100EE00009F4BAC1853239F493FD859193FF81915C
:100EF0007F01853229F4B60190E00E944C09E7CFCA
:100F0000912C212C312CFFE1F315D8F08B3279F0A4
:100F100038F4803279F08332A1F4232D20611DC092
:100F20008D3261F0803369F4232D216016C0832D4A
:100F30008260382EE32DE4603E2E2AC0F32DF86047
:100F40001DC037FC2DC020ED280F2A3040F08E3216
:100F5000B9F436FC81C1232D2064322E19C036FE2F
:100F600006C08AE0989E200D1124922E11C0EAE05E
:100F70002E9E200D1124222EF32DF0623F2E08C04C
:100F80008C3621F4832D8068382E02C0883641F4D7
:100F9000F70193FD859193FF81917F018111B3CF7B
:100FA000982F9F7D9554933028F40C5F1F4F9FE33B
:100FB00099830DC0833631F0833771F0833509F0A2
:100FC00059C021C0F801808189830E5F1F4F88249A
:100FD0008394912C530113C02801F2E04F0E511C51
:100FE000F801A080B18036FE03C0692D70E002C018
:100FF0006FEF7FEFC5010E9441094C018201F32D83
:10100000FF773F2E16C0280122E0420E511CF80146
:10101000A080B18036FE03C0692D70E002C06FEF82
:101020007FEFC5010E9436094C01F32DF0683F2E79
:10103000820133FC1BC0822D90E088169906B0F423
:10104000B60180E290E00E944C092A94F4CFF501A9
:1010500037FC859137FE81915F01B60190E00E94D7
:101060004C0921102A9421E0821A910881149104DC
:1010700071F7E8C0843611F0893641F5F80137FE82
:1010800007C060817181828193810C5F1F4F08C00E
:1010900060817181072E000C880B990B0E5F1F4F2A
:1010A000F32DFF763F2E97FF09C0909580957095A0
:1010B00061957F4F8F4F9F4FF0683F2E2AE030E0C1
:1010C000A3010E948809882E861845C0853731F40F
:1010D000232D2F7EB22E2AE030E025C0932D997F5C
:1010E000B92E8F36C1F018F4883579F0B5C0803745
:1010F00019F0883721F0B0C0E92FE061BE2EB4FEB0
:101100000DC0FB2DF460BF2E09C034FE0AC0292F8C
:101110002660B22E06C028E030E005C020E130E0B5
:1011200002C020E132E0F801B7FE07C060817181A2
:10113000828193810C5F1F4F06C06081718180E0C6
:1011400090E00E5F1F4FA3010E948809882E861829
:10115000FB2DFF773F2E36FE0DC0232D2E7FA22EB6
:10116000891458F434FE0BC032FC09C0832D8E7EE6
:10117000A82E05C0B82CA32C03C0B82C01C0B92CD4
:10118000A4FE0FC0FE01E80DF11D8081803321F423
:101190009A2D997EA92E09C0A2FE06C0B394B394DD
:1011A00004C08A2D867809F0B394A3FC11C0A0FE78
:1011B00006C0B21488F4280C922C9B180EC0B214EE
:1011C00060F4B60180E290E00E944C09B394F7CF3E
:1011D000B21418F42B1802C0982C212CA4FE10C0B5
:1011E000B60180E390E00E944C09A2FE17C0A1FC6A
:1011F00003C088E790E002C088E590E0B6010CC02B
:101200008A2D867859F0A1FE02C08BE201C080E2EF
:10121000A7FC8DE2B60190E00E944C09891438F4D5
:10122000B60180E390E00E944C099A94F7CF8A942B
:10123000F301E80DF11D8081B60190E00E944C0998
:101240008110F5CF222009F442CEB60180E290E071
:101250000E944C092A94F6CFF6018681978102C03C
:101260008FEF9FEF2B96E2E10C94020AFC010590B0
:10127000615070400110D8F7809590958E0F9F1F98
:101280000895FC016150704001900110D8F78095DD
:1012900090958E0F9F1F08950F931F93CF93DF9309
:1012A000FB01238121FD03C08FEF9FEF2CC022FFA4
:1012B00016C046815781248135814217530744F473
:1012C000A081B1819D012F5F3F4F318320838C939B
:1012D000268137812F5F3F4F3783268314C08B01D0
:1012E000EC01FB010084F185E02D0995892BE1F6E5
:1012F000D80116968D919C911797019617969C93FD
:101300008E931697CE01DF91CF911F910F91089583
:10131000FA01AA27283051F1203181F1E8946F9326
:101320006E7F6E5F7F4F8F4F9F4FAF4FB1E03ED0CC
:10133000B4E03CD0670F781F891F9A1FA11D680F6A
:10134000791F8A1F911DA11D6A0F711D811D911D9D
:10135000A11D20D009F468943F912AE0269F112412
:101360003019305D3193DEF6CF010895462F477076
:10137000405D4193B3E00FD0C9F7F6CF462F4F70D1
:10138000405D4A3318F0495D31FD4052419302D02F
:10139000A9F7EACFB4E0A6959795879577956795D5
:1013A000BA95C9F700976105710508959B01AC01D5
:1013B0000A2E06945795479537952795BA95C9F7FC
:1013C000620F731F841F951FA01D08952F923F92D7
:1013D0004F925F926F927F928F929F92AF92BF9245
:1013E000CF92DF92EF92FF920F931F93CF93DF93F1
:1013F000CDB7DEB7CA1BDB0B0FB6F894DEBF0FBE4E
:10140000CDBF09942A88398848885F846E847D849A
:101410008C849B84AA84B984C884DF80EE80FD809C
:101420000C811B81AA81B981CE0FD11D0FB6F89412
:0E143000DEBF0FBECDBFED010895F894FFCFD3
:10143E00062A01F803DA008E02746F75743A2025BD
:10144E00640076313A2025640076323A2025640015
:02145E0020006C
:00000001FF
