:100000000C943E000C945B000C945B000C945B0021
:100010000C945B000C945B000C945B000C945B00F4
:100020000C945B000C945B000C945B000C945B00E4
:100030000C945B000C945B000C945B000C946900C6
:100040000C945B000C945B000C9478000C945B00A7
:100050000C94E9020C945B000C945B000C945B0024
:100060000C9439010C945B000C945B000C945B00C5
:100070000C945B000C945B000C945B0011241FBE7D
:10008000CFEFD4E0DEBFCDBF11E0A0E0B1E0E6EEFF
:10009000F8E002C005900D92A230B107D9F721E037
:1000A000A2E0B1E001C01D92A731B207E1F70E94C2
:1000B00037040C9471040C94000082E084BD85E048
:1000C00085BDEEE6F0E080818260808387E287BDB7
:1000D00008951F920F920FB60F9211248F9381E013
:1000E000809300018F910F900FBE0F901F90189575
:1000F0001F920F920FB60F9211242F933F934F939D
:100100005F936F937F938F939F93AF93BF93EF937F
:10011000FF9380E18093ED008091EE0085FF30C079
:100120008091FA00809302018091FA00809303018C
:100130008091FA00809304018091FA008093050178
:100140008091FA00809306018091FA008093070164
:100150008091FA0080930801809106018F3F09F495
:100160002B9A809107018F3F09F4419A1092EE007B
:100170002FEF30E047E06BE070E081E00E94D503B4
:1001800080E28093ED008091EE0085FF29C0809190
:10019000FA00809302018091FA008093030180911C
:1001A000FA00809304018091FA0080930501809108
:1001B00004018F3F09F4479A809105018F3F09F4AC
:1001C0002C9A809106018F3F09F42D9A1092EE002F
:1001D0002FEF30E044E06CE070E082E00E94D50355
:1001E00080E38093ED008091EE0085FF31C0809127
:1001F000FA00809302018091FA00809303018091BC
:10020000FA00809304018091FA00809305018091A7
:10021000FA00809305018091FA0080930501809196
:1002200003018F3F09F4479A809104018F3F09F43D
:100230002C9A809105018F3F09F42D9A1092EE00BF
:100240002FEF30E047E060E170E083E00E94D503EB
:10025000FF91EF91BF91AF919F918F917F916F919E
:100260005F914F913F912F910F900FBE0F901F9074
:1002700018951F920F920FB60F9211248F939F9390
:10028000EF93FF9389B1EAE0F1E086FB882780F9DC
:1002900091E089278195878389B18095880F880BA4
:1002A0008683FF91EF919F918F910F900FBE0F90DA
:1002B0001F90189594B1936894B9539A9CB534E003
:1002C000639FB0011124692B6CBD9CB59065892B8F
:1002D0008CBD5093140140931301209312014532B9
:1002E000510551F434B181E090E001C0880F2A95A6
:1002F000EAF7832B84B926C04832510551F437B14F
:1003000081E090E001C0880F2A95EAF7832B87B936
:1003100019C04B32510551F43AB181E090E001C06F
:10032000880F2A95EAF7832B8AB90CC04E32510503
:1003300049F43DB181E090E001C0880F2A95EAF7C9
:10034000832B8DB9E0911301F0911401208181E09C
:1003500090E00090120102C0880F991F0A94E2F702
:10036000822B80830895E0911301F0911401208184
:1003700081E090E00090120102C0880F991F0A945A
:10038000E2F780958223808308958EBD0DB407FE29
:10039000FDCF8EB5FB0180830895EF92FF920F93FE
:1003A0001F93CF93DF938C01EB017C01E40EF11CD2
:1003B0000E151F0541F0BE01F80181918F010E94C9
:1003C000C5012196F5CFDF91CF911F910F91FF903D
:1003D000EF900895E0911301F0911401208181E0E4
:1003E00090E00090120102C0880F991F0A94E2F772
:1003F000822B80830895469A00C000C046980895D5
:10040000CF93C82F662311F0449A01C044984598B1
:10041000559A3F9A509A519A5998589847985D988A
:10042000C7FD599AC6FD589AC5FD479AC4FD5D9A05
:100430000E94FB015998589847985D98C3FD599AB6
:10044000C2FD589AC1FD479AC0FD5D9A0E94FB010A
:100450005D9A479A589A599ACF9108954498459A27
:1004600055983F9850985198469A00C000C04D9BAF
:1004700002C080E101C080E03799806248998064C1
:1004800049998068469800C000C0469A00C000C0E4
:100490004D99816037998260489984604999886054
:1004A000469808950E942E0287FDFCCF85E08A952C
:1004B000F1F700000C942E02CF93C82F0E94520235
:1004C00060E08C2FCF910C940002CF93C82F0E9434
:1004D000520261E08C2FCF910C940002611102C096
:1004E000805801C080540C945C020E94520290E03B
:1004F000089581E00C945C0282E00C945C02CF933E
:10050000C82F0E945202CA3049F4803410F080E0B3
:1005100001C080E48058CF910C945C0261E08C2F84
:10052000CF910C940002CF93DF93EC018991882343
:1005300019F00E947F02FACFDF91CF910895CF93F7
:10054000DF93FC018491EF012196882321F00E9422
:100550007F02FE01F7CFDF91CF910895CF93C82F8F
:100560003C9A3D9A3E9A559A3F9A509A519A8FE7F3
:100570009EE30197F1F700C00000479A5D9A0E9440
:10058000FB0187E893E10197F1F700C000000E94AA
:10059000FB0195E59A95F1F700000E94FB0185E5C6
:1005A0008A95F1F700005D980E94FB0195E59A9508
:1005B000F1F7000088E20E945C0288E00E945C0281
:1005C0000E94790286E00E945C028C2FCF910C94ED
:1005D0005C021F920F920FB60F9211248F9380919D
:1005E000160180FF09C08091D2008093150180918F
:1005F00016018E7F809316018F910F900FBE0F9082
:100600001F901895E8ECF0E080818F6080838CE08B
:1006100090E09093CE008093CD00EAECF0E08081F2
:10062000816080831092160108959091C90094FD15
:10063000FCCF8093D2000895FC0170E09F01281B3D
:10064000390B2617370744F42091C90024FDFCCF4D
:1006500021912093D200F2CF8091C90084FDFCCF7C
:100660008AE08093D2008091C90084FDFCCF8DE0A8
:100670008093D200089580911601816080931601C5
:100680008091160180FDFCCF80911501089591E0C5
:100690009093D8001092E5009091D90091609093CA
:1006A000D9001092E20094E09093E30092E19093DD
:1006B000E4009091DB00906A9093DB001092DF00E1
:1006C0009FE39093DE0090E0292F2295207F2093D6
:1006D000ED001092EF001092EE009F5F9630A1F7B0
:1006E000811104C08091D800826005C0823029F455
:1006F0008091D8008A608093D80080E00895E091CE
:10070000DC00F0E0082E02C0F595E7950A94E2F7C8
:10071000E0FD2EC08295807F8093ED001092EE0068
:10072000CB0153E0969587955A95E1F78093F300B6
:100730006295660F607E6093F2001092F100109255
:10074000F0001092F7001092F6001092F50010924F
:10075000F400922FF9018E2F891B841720F48191C8
:100760008093FA00F8CF1092EF0040644093EF00BE
:1007700080E008952091DC0030E002C03595279597
:100780008A95E2F720FD0DC08091EE0086FF05C03E
:100790008091EE008F7B8093EE008091EE008111BE
:1007A00002C080E0089583E00895E091DC00F0E06D
:1007B000082E02C0F595E7950A94E2F7E0FD2EC0F9
:1007C0008295807F8093ED001092EE00CB0153E084
:1007D000969587955A95E1F78093F3006295660F99
:1007E000607E6093F2001092F1001092F000C90157
:1007F00063E0969587956A95E1F78093F7002295D7
:10080000220F207E2093F6001092F50085E0809361
:10081000F4001092EF0040684093EF0080E00895EC
:100820008295807F8093ED008091EE0085FF07C068
:100830008091EE008F7D8093EE0080E001C081E02A
:100840009091EE0097FF04C06091EF006F6082E02E
:10085000FA0170E09F01241B350B2617370724F49B
:100860009091FA009193F6CF1092EE00089578944B
:100870000E945D0080916800846080936800809190
:100880006C00806C80936C0080E00E9447032FEF27
:1008900030E047E06BE070E081E00E94D5032FEF8D
:1008A00030E044E06CE070E082E00E94D5032FEF7E
:1008B00030E047E060E170E083E00E94D503809182
:1008C000000180FFFCCF809100018E7F80930001AA
:1008D0002AE031E044E066E270E080E00E947F03BD
:0608E000EECFF894FFCFFB
:0208E60001000F
:00000001FF
